:100000000C9493020C94B0020C94B0020C94B002C5
:100010000C94B0020C94B0020C94B0020C94B00298
:100020000C94B0020C94B0020C94B0020C94B00288
:100030000C94B0020C9457030C94B0020C94B002D0
:100040000C94B0020C94B0020C94B0020C94B00268
:100050000C94B0020C94B0020C94B0020C94B00258
:100060000C94B0020C94B0020C94B0020C94B00248
:10007000485454502F312E302034303120556E6189
:100080007574686F72697A65640D0A436F6E746582
:100090006E742D547970653A20746578742F687485
:1000A0006D6C0D0A0D0A3C68313E34303120556EBE
:1000B000617574686F72697A65643C2F68313E00BF
:1000C0003C68313E323030204F4B3C2F68313E008F
:1000D0003C6120687265663D2F636F6E6669673E9E
:1000E0004572726F723C2F613E003C612068726500
:1000F000663D222E2F636F6E666967223E5B636FDB
:100100006E6669675D3C2F613E203C6120687265C8
:10011000663D222E2F223E5B726566726573685DB6
:100120003C2F613E0A003C2F7072653E3C62723E7D
:100130000A005374617475733A2057616974696E6B
:100140006720666F72206E747020616E73776572BF
:100150000A005374617475733A204F4B0A0053744C
:10016000617475733A204C617374206E74702073DF
:10017000796E63206973206F6C64657220746861A6
:100180006E203120686F75720A00290A0020284706
:100190004D5400446174653A20003C68323E4E5430
:1001A0005020636C6F636B3C2F68323E3C7072650D
:1001B0003E0A000A4E65772070773A3C696E70758A
:1001C0007420747970653D74657874206E616D6516
:1001D0003D6E703E0A0A70773A202020203C696EFE
:1001E00070757420747970653D70617373776F7288
:1001F00064206E616D653D70773E3C696E7075740C
:1002000020747970653D7375626D69742076616CD8
:1002100075653D6170706C793E3C2F666F726D3E06
:100220000A003E3C7363726970743E747A692829CF
:100230003C2F7363726970743E0A003E0A474D5446
:10024000206F66667365743A3C696E7075742074CD
:100250007970653D74657874206E616D653D747A62
:100260002076616C75653D004E5450207372762087
:1002700049503A3C696E70757420747970653D74AC
:10028000657874206E616D653D6E732076616C7566
:10029000653D003E474D54206F66667365740A00E5
:1002A00020636865636B6564003E323468203C6996
:1002B0006E70757420747970653D636865636B62F8
:1002C0006F78206E616D653D756F002063686563B2
:1002D0006B6564000A73686F773A203C696E7075CD
:1002E0007420747970653D636865636B626F782014
:1002F0006E616D653D6868000A3C666F726D2061D5
:100300006374696F6E3D2F6375206D6574686F64EB
:100310003D6765743E436C6F636B2049503A200023
:100320003C68323E4E545020636F6E6669673C2FC6
:1003300068323E3C7072653E4D4143206164647298
:100340003A20003C736372697074207372633D7469
:10035000312E6A733E3C2F7363726970743E003CA9
:100360006120687265663D2F3E4F4B3C2F613E2EEB
:1003700020506C6561736520706F7765722D6379AD
:10038000636C652061667465722049502D616464F8
:10039000722E206368616E67650066756E637469AE
:1003A0006F6E20747A6928297B0A76617220742026
:1003B0003D206E6577204461746528293B0A76618B
:1003C0007220747A6F3D742E67657454696D657A16
:1003D0006F6E654F666673657428292F36303B0A49
:1003E0007661722073743B0A69662028747A6F3EC6
:1003F00030292073743D22474D542D222B747A6F7F
:100400003B20656C73652073743D22474D542B224D
:100410002B747A6F3B0A646F63756D656E742E770B
:10042000726974652822205B496E666F3A20796F85
:10043000757220504320697320222B73742B225D28
:1004400022293B0A7D0A00485454502F312E302077
:10045000323030204F4B0D0A436F6E74656E742D31
:10046000547970653A206170706C69636174696F6A
:100470006E2F782D6A6176617363726970740D0AEC
:100480000D0A00485454502F312E30203230302085
:100490004F4B0D0A436F6E74656E742D5479706501
:1004A0003A20746578742F68746D6C0D0A5072610F
:1004B000676D613A206E6F2D63616368650D0A0D8B
:1004C0000A004500008200004000200001080006EC
:1004D000040001E30004FA00010000000153756EFE
:1004E0004D6F6E54756557656454687546726953EF
:1004F000617400253032753A253032753A25303234
:1005000075257300253032753A253032753A25301D
:10051000327520200025732025752D253032752D4C
:1005200025303275000011241FBECFEFD0E1DEBFB1
:10053000CDBF11E0A0E0B1E0E2EAF9E302C005902E
:100540000D92AA36B107D9F714E0AAE6B1E001C0CE
:100550001D92AB35B107E1F70E94B4060C94CF1C95
:100560000C940000FC013196DC0190E008C08E3252
:1005700021F08C3211F08D9301C091E0319682917F
:1005800031968823A1F7992311F480E38D931C926F
:100590000895BC0140E030E017C0FB01E30FF11DFE
:1005A000808190E0022E02C0959587950A94E2F72B
:1005B00080FD03C033E027E001C04F5F2F5F28308C
:1005C00061F73F5F343010F420E0E7CF842F0895C7
:1005D0001092850010928400109280008DE080932C
:1005E00081008FE2809389008EEA8093880082E008
:1005F00080936F000895613091F420E030E0F901BC
:10060000EF57FE4FDA01A20FB31F8C9180832F5F4B
:100610003F4F2630310599F783E0809373010895A9
:10062000BC0187E491E04AE050E00E949D199C01E2
:1006300080E0232B09F481E0089581EA91E060E0F5
:1006400070E047E454E00E94C00A08950F931F939E
:1006500001EA11E0C80160E070E047E454E00E9464
:10066000C00ABC01C8014AE953E00E94C00A1F91B8
:100670000F91089581EA91E060E070E043E854E072
:100680000E94C00A08950F931F9301EA11E0C80168
:1006900060E070E043E854E00E94C00ABC01C80179
:1006A0004FE553E00E94C00A1F910F9108951F92D9
:1006B0000F920FB60F9211242F933F934F935F9396
:1006C0006F937F938F939F93AF93BF93EF93FF931A
:1006D000809175018F5F80937501809172018823ED
:1006E00029F08091720181508093720180917F0185
:1006F0008F5F80937F0180917F01863020F0109280
:100700007F010E947C15299B02C0299801C0299A6B
:10071000FF91EF91BF91AF919F918F917F916F91D9
:100720005F914F913F912F910F900FBE0F901F90AF
:100730001895A8E0B0E0EFE9F3E00C942B197B01E9
:1007400097FD03C03BE2D32E05C0909581959F4F46
:100750002DE2D22E8E010F5F1F4FB8014AE050E00C
:100760000E94BA19F80101900020E9F731978E2F05
:10077000801B082F84300CF003E0C70160E071E0BB
:100780000E949619A02FBB27A7FDB095AC0FBD1FE7
:1007900095E00FC0E92FFF27E7FDF095EE0DFF1D57
:1007A00031978C9180839150943009F493E00150FB
:1007B0001197002379F792301CF0F701D18202C023
:1007C000F701D0822896E7E00C944719ACE1B0E03D
:1007D000ECEEF3E00C942E1960913B0170913C011A
:1007E000882777FD8095982F28E631E040E050E09B
:1007F0000E94CB189B01AC0160917A0170917B0142
:1008000080917C0190917D01620F731F841F951F61
:10081000409152019E01235F3F4F8E010F5F1F4F9A
:100820000E940914182F80915101882341F0809172
:100830003B0190913C016BE871E00E9499030E949A
:10084000AF1010935401173341F480918001882335
:1008500089F481E0809380010DC0193359F48091AF
:100860008001813039F482E08093740110927E011E
:10087000109280016C96E4E00C944A19ACE1B0E06F
:10088000E4E4F4E00C94281981EA91E060E070E07F
:1008900043E854E00E94C00ABC0181EA91E04AE9C1
:1008A00051E00E94C00A5C0180917401882309F420
:1008B00072C060913B0170913C01882777FD809563
:1008C000982F28E631E040E050E00E94CB189B01D1
:1008D000AC0160917A0170917B0180917C019091D3
:1008E0007D01620F731F841F951F4DE0E42EF12CD4
:1008F000EC0EFD1E4091520197016E010894C11C3F
:10090000D11C86010E94091481EA91E0B50143E9F6
:1009100051E00E94C00ABC0181EA91E0A7010E9457
:10092000CE0EBC0181EA91E046E051E00E94CE0E7D
:10093000BC0181EA91E0A6010E94CE0EBC0181EAD1
:1009400091E04DE851E00E94C00A8C0180913B018A
:1009500090913C016BE871E00E94990381EA91E07B
:10096000B8014BE851E00E94CE0EBC0181EA91E053
:100970004AE851E00E94C00ABC01809174018230B3
:1009800029F481EA91E04EE551E00AC081EA91E064
:1009900042E551E005C081EA91E0B50142E351E052
:1009A0000E94C00ABC0181EA91E046E251E00E9447
:1009B000C00ABC0181EA91E04AEE50E00E94C00A00
:1009C0006C96EAE00C944419EF92FF920F931F93F8
:1009D00081EA91E060E070E043E854E00E94C00AE0
:1009E000BC0181EA91E043E453E00E94C00ABC01EB
:1009F00081EA91E040E253E00E94C00A7C018BE86A
:100A000091E06DE371E046E02AE300E10E942C12E0
:100A100081EA91E0B7014BE851E00E94CE0EBC01A3
:100A200081EA91E048EF52E00E94C00A7C018BE825
:100A300091E06AE671E044E02EE20AE00E942C12A6
:100A400081EA91E0B7014BE851E00E94CE0EBC0173
:100A500081EA91E04EE051E00E94CE0E8C0187E8E1
:100A600091E00E94C90290E06BE871E04AE050E03A
:100A70000E94BA1981EA91E0B8014BE851E00E9466
:100A8000CE0EBC0181EA91E044ED52E00E94C00A22
:100A9000BC0180915201882339F081EA91E04BEC4E
:100AA00052E00E94C00ABC0181EA91E049EA52E0AA
:100AB0000E94C00ABC0180915101882339F081EA6B
:100AC00091E040EA52E00E94C00ABC0181EA91E054
:100AD00043E952E00E94C00ABC0181EA91E048E685
:100AE00052E00E94C00A7C018BE891E063E471E06F
:100AF00044E02EE20AE00E942C1281EA91E0B70164
:100B00004BE851E00E94CE0EBC0181EA91E04BE33C
:100B100052E00E94C00A8C0180913B0190913C01FF
:100B20006BE871E00E94990381EA91E0B8014BE81B
:100B300051E00E94CE0EBC0181EA91E042E252E017
:100B40000E94C00ABC0181EA91E043EB51E00E949F
:100B5000C00A1F910F91FF90EF9008951F93CF93BC
:100B6000DF93EC0188818F3229F48981803211F47E
:100B700080E0F6C080E191E0BE0146E050E00E94D6
:100B80009D19009719F40E942603AEC087E191E0F9
:100B9000BE0147E050E00E949D19009719F40E94A1
:100BA000E404A2C08FE191E0BE0144E050E00E9465
:100BB0009D19009709F0D3C0CE016BE871E043E1C5
:100BC00024E231E00E948511882309F4C8C08BE833
:100BD00091E00E94DD118BE891E00E9410038823D0
:100BE00009F4BDC0CE016BE871E043E127E231E0DA
:100BF0000E948511882371F08BE891E00E94DD113D
:100C000083E491E06BE871E00E945D12882311F0AB
:100C100011E001C010E010925201CE016BE871E0CA
:100C200043E12AE231E00E948511882319F081E036
:100C30008093520110925101CE016BE871E043E1C3
:100C40002DE231E00E948511882319F081E0809324
:100C50005101CE016BE871E043E120E331E00E94F5
:100C600085118823C1F08BE891E00E94DD118BE8AB
:100C700091E00E94B2028BE891E00E9457199C011A
:100C800085579F4F8751914010F011E004C0309379
:100C90003C0120933B01CE016BE871E043E123E38B
:100CA00031E00E948511882371F08BE891E00E9469
:100CB000DD1187E491E06BE871E048E050E00E94CC
:100CC000AB1910924F011123A9F081EA91E060E085
:100CD00070E043E854E00E94C00ABC0181EA91E060
:100CE00040ED50E00E94C00A9093A00180939F01C4
:100CF0008AE036C080E091E063E10E940C1C83E44E
:100D000091E061E171E044E050E00E94021C87E460
:100D100091E069E171E04AE050E00E94021C80E34A
:100D200091E0609151010E940C1C81E391E060917F
:100D300052010E940C1C81E091E063E10E940C1CB6
:100D400060913B0170913C01645D7E4F86E191E0D2
:100D50000E941A1C83E68093540181E001C08FEF4A
:100D6000DF91CF911F910895A1E0B0E0EAEBF6E0AA
:100D70000C94241980E8809361001092610010E0C7
:100D8000812F8A95F1F7229A2A985198599A80E6EC
:100D90009AEEFC013197F1F7FC013197F1F7FC0174
:100DA0003197F1F7FC013197F1F7FC013197F1F739
:100DB000FC013197F1F70197F1F72A9A8DE391E061
:100DC0000E94E90F82E00E94E30F1A95F1F784E197
:100DD00066E774E00E94C50F219A299849990BC0D3
:100DE00080E091E06FE00E940C1C81E091E06FE0F8
:100DF0000E940C1C3EC080E091E00E94F41B8331F5
:100E0000F1F483E491E061E171E044E050E00E949C
:100E1000E41B87E491E069E171E04AE050E00E9460
:100E2000E41B10924F0180E391E00E94F41B809339
:100E3000510181E391E00E94F41B8093520181E013
:100E400091E00E94F41B8331A1F486E191E00E94BD
:100E5000FC1B9C012C52314030933C0120933B0100
:100E600008C08FEF9FE0212F2A95F1F70197D9F75E
:100E700001C010E00E94AF10882399F30E94E8029D
:100E800078948DE391E00E94EF0E8AE892E061EAA7
:100E900071E00E94FF10BC0110922B0481EA91E0E6
:100EA000409142010E944D18882379F38AE691E02F
:100EB00067E871E04EE651E00E9494168AE691E000
:100EC00067E871E00E94B2098BE891E06AE671E0A0
:100ED00044E02EE20AE00E942C1285E08093720129
:100EE00080E590E00E94E60A1982CC24DD24AA2441
:100EF000A394ACE36A2EFEE19F2EE4E0BE2E7FE0D9
:100F0000872E68E0762E8AE892E061EA71E00E941E
:100F1000FF10BC0110922B0481EA91E00E946A1735
:100F20008C0181EA91E0B8010E94080E7C01909347
:100F3000A00180939F01009709F026C101151105BA
:100F400009F065C1C114D10419F00894C108D10891
:100F500089818130A1F480917201882381F481E03C
:100F600091E063E10E940C1C60913B0170913C0197
:100F7000645D7E4F86E191E00E941A1C1982809187
:100F80007301882341F480917201882321F4A09297
:100F9000730110927201809173018130B1F48091DC
:100FA0007201882391F47092720183E491E00E94AF
:100FB000D709882319F08EE691E002C083E491E01E
:100FC00061E04BEF52E00E94B40B809173018330DB
:100FD00099F4409153014F5F4093530181EA91E0AE
:100FE00063E471E021E831E00E94870C8092720195
:100FF00010927401B092730180917301843009F0F2
:1010000082CF90917401992309F450C080917501A9
:10101000882309F44BC080917501209176013091AD
:1010200077014091780150917901280F311D411DC0
:10103000511D2093760130937701409378015093AE
:10104000790180917501E0907A01F0907B01009127
:101050007C0110917D01E80EF11C011D111DE09233
:101060007A01F0927B0100937C0110937D01215E57
:10107000354F45405040A8F00894E11CF11C011D7B
:10108000111DE0927A01F0927B0100937C01109394
:101090007D011092760110927701109278011092E2
:1010A0007901109275010E94E6032DCFC114D1047D
:1010B00001F549991EC020913B0130913C01C901C5
:1010C0000A9690933C0180933B018D38910534F052
:1010D0002450314030933C0120933B01B092720187
:1010E0000E94E603F1E0F9835FEFC52E5EE2D52EA4
:1010F0000ACF992399F480917201882379F4409161
:1011000053014F5F4093530181EA91E063E471E042
:1011100021E831E00E94870C909272018091740165
:10112000823009F0F0CE80917201882309F0EBCE75
:1011300080917E01823098F4409153014F5F40933B
:10114000530181EA91E063E471E021E831E00E941B
:10115000870C80917E018F5F80937E0112C0109278
:101160007E0183E491E00E94D709882319F08EE67E
:1011700091E002C083E491E061E04BEF52E00E9415
:10118000B40B60927201BFCEBC016F557E4F86E3F7
:1011900091E044E050E00E949D19009791F081EAAF
:1011A00091E060E070E043E854E00E94C00ABC01B6
:1011B0009093A00180939F0181EA91E040EC50E080
:1011C0000DC0C7018B559E4F0E94AE058F3F49F45D
:1011D00081EA91E060E070E040E750E00E94C00AE0
:1011E00009C0813019F40E94430304C08A3031F0F1
:1011F0000E943E049093A00180939F0160919F0103
:101200007091A00181EA91E00E94A90D7CCE81EA53
:1012100091E0B8010E94240A882309F474CE81EA7F
:1012200091E06AE771E0409153010E94F70A882338
:1012300009F469CE1092760110927701109278012C
:10124000109279011092750180917A0190917B0141
:10125000A0917C01B0917D0180589E47AA4AB34875
:1012600080937A0190937B01A0937C01B0937D01E0
:10127000A092740110927E0146CEA0E0B0E0E3E4BB
:10128000F9E00C942A196C01413081F468507040E7
:101290007B0100E010E0685F7F4F21E130E040E03B
:1012A00050E0E20EF31E041F151F15C0423021F05E
:1012B000EE24FF2487010FC0685070407B0100E0DE
:1012C00010E0685F7F4F86E090E0A0E0B0E0E80EBD
:1012D000F91E0A1F1B1FF601EB0116C0808190E06A
:1012E000A0E0B0E0BA2FA92F982F8827218130E005
:1012F00040E050E0822B932BA42BB52BE80EF91E77
:101300000A1F1B1F32962297C230D10538F7FB0106
:10131000EE7FEC0DFD1D60FF15C0808190E0A0E028
:10132000B0E0BA2FA92F982F882708C02FEF3FEFE2
:1013300040E050E0E222F32204231523E80EF91ED8
:101340000A1F1B1FC801AA27BB270097A105B105CB
:1013500069F7970120953095C901CDB7DEB7E8E070
:101360000C944619AC01009779F020E030E0F901C7
:10137000EF5CFB4FDA01A20FB31F8C9180832F5FCC
:101380003F4F2430310599F76115710579F020E060
:1013900030E0F901E65AFE4FDB01A20FB31F8C913A
:1013A00080832F5F3F4F2430310599F70895AC01BA
:1013B00020E030E0F901EF5CFB4FDA01A20FB31F30
:1013C00080819C918927F901E65AFE4F90818923FB
:1013D00011F081E008952F5F3F4F2430310551F720
:1013E00080E00895DC0120E030E0FB01E20FF31F14
:1013F0005A969C915A978081981711F080E0089531
:101400002F5F3F4F11962430310579F781E0089521
:10141000FC0169327105B0F08485883099F48585C6
:10142000863081F4DF019696E1E3F4E09C918081BF
:10143000981741F41196319684E0E533F807B1F737
:1014400081E0089580E00895FC016A327105D0F0D2
:1014500084858830B9F485858823A1F48685853410
:1014600089F4DF01E1E3F4E05E969C915E97808170
:10147000981741F41196319684E0E533F807A1F707
:1014800081E0089580E00895FC01A5E3B4E0868141
:1014900080838D918683319684E0AB33B807B9F7AA
:1014A00008950F931F938C01FC01108E118E80E420
:1014B000848B158A868BC8010E9664E170E040E04B
:1014C0000E943D09F801908F818F1F910F9108951F
:1014D000AC01FC01A1E3B4E0828D868F8D91828FF7
:1014E000319684E0A533B807B9F7CA010E94510AC2
:1014F0000895FC01B99694E08081680F711D848184
:101500006483442311F0808301C01082915031978D
:10151000992319F0672F7727EFCF08950F931F9323
:101520008C01FC0194A182A184A392A395A183A123
:1015300085A393A3C8010E94790AF80112AA13AAED
:1015400080E586A71F910F910895FC01908980E0A6
:101550002189422F50E0482B592B26A5822F8295B6
:101560008F7090E0880F991F880F991F481B590BA7
:101570004451504057FF02C040E050E0CA01089576
:101580006A5C7F4FDC01A60FB71F6653704003C033
:101590008D936F5F7F4FFA014F5F5F4F8491882378
:1015A000B9F7CB010895DA016A5C7F4FFC01E60FC1
:1015B000F71F66537040922F03C08D918193915015
:1015C0009923D9F7CB01820F911D089590932E0492
:1015D000809357010895DC01FA0105C084918D9331
:1015E00031966150704061157105C1F70895CF9330
:1015F000DF93FC01EB01442319F085A18417C9F5A1
:1016000086A18823B1F587A1883399F583A18B370B
:1016100081F5EE5AFF4F219130E040E050E0522F2B
:10162000442733272227808190E0A0E0B0E0DC014E
:1016300099278827282B392B4A2B5B2B32968081C0
:1016400090E0A0E0B0E0282B392B4A2B5B2B829155
:1016500090E0A0E0B0E0BA2FA92F982F8827282B80
:10166000392B4A2B5B2B288339834A835B8381E0A8
:1016700001C080E0DF91CF910895A0E0B0E0E3E405
:10168000FBE00C942B19DC01D62EE72EBA01F22ECA
:10169000932FAD01ED0120E030E0F801E20FF31FE0
:1016A00080818883F901EB5CFB4F80818E832F5F03
:1016B0003F4F21962630310581F788E01C968C93A8
:1016C0001C971D961C921D97ED01E2ECF4E08491AD
:1016D0008E873196219684E0EB3CF807C1F7809124
:1016E000580153968C9353978F5F8093580150966F
:1016F0001C92509781E157968C93579700E010E029
:10170000FB01E00FF11F8081FA01868FF801EF5C89
:10171000FB4F8081FA01828F0F5F1F4F4F5F5F4F3A
:101720000430110569F794969C9394979596FC92D2
:1017300095979296EC9292979396DC9293979696C1
:101740001C92969798961C92989799961C92CDB752
:10175000DEB7E7E00C94471990E080912C048230CA
:1017600009F091E0892F0895CF93DF93EC01509316
:101770005A044093590481E080932C0460932D0413
:1017800020E030E0F901E35CFB4FDE01A20FB31F64
:101790008C9180832F5F3F4F2430310599F7DF9183
:1017A000CF91089590933C0480933B040895CF9388
:1017B000DF93EC0180913104882309F445C0AE0128
:1017C00025E334E0FE01D9019FEF90838D9186835C
:1017D000319684E0AB33B807C1F788E08C8786E0A8
:1017E0008D87DE01EBECF4E084911E968C931E97BE
:1017F0003196119684E0E33DF807B1F7F901819144
:101800009F01FA01868B10A24F5F5F4FF4E02B33EC
:101810003F07A1F7DE015C9620E030E0FB01E20F1C
:10182000F31F80811A968C931A97F901EF5CFB4F96
:1018300080818D932F5F3F4F2430310579F78AE205
:1018400090E0BE010E94B710DF91CF910895EF9212
:10185000FF920F931F938C017B01CB014C96F801F3
:10186000818B908BC8010E94510AC7010896F8012C
:1018700087A396A380E190E0E80EF91EC8014A967E
:10188000B70141E00E943D09F80181A790A7C70177
:101890004A96B8010E94B7101F910F91FF90EF90E8
:1018A00008958F929F92BF92CF92DF92EF92FF9214
:1018B0000F931F93CF93DF93EC014B01B42EA8013C
:1018C0008601B90197010E943D0B6B2D6D3D08F01B
:1018D0006CEDDE019A9620E030E007C0F401E20FE3
:1018E000F31F80818D932F5F3F4F2617B8F3CE01F2
:1018F00070E00E94270CDF91CF911F910F91FF9014
:10190000EF90DF90CF90BF909F908F900895A0E0D0
:10191000B0E0EDE8FCE00C942B19EC017B01D42E37
:1019200089010E94AF10882309F472C0AE01DE0164
:1019300020E030E0F801E20FF31F80818C93F90181
:10194000EB5CFB4F808116968C9316972F5F3F4F71
:1019500011962630310571F788E08C871D86DE01EF
:10196000E2ECF4E084911E968C931E9731961196CA
:1019700084E0EB3CF807B1F7809158018B8B8F5FC7
:10198000809358018CE4898B81E18F8B20E030E0DB
:10199000F701E20FF31F8081FA01868FF901EF5CF6
:1019A000FB4F8081FA01828F2F5F3F4F4F5F5F4F68
:1019B0002430310569F7CE010E94510A1CA28BE741
:1019C0008DA38AE08AA3DBA21EA288E38FA318A6B8
:1019D00019A6DE019A96FD0180E011928F5F803397
:1019E000E1F7E3EDF4E084918D93319684E0ED3DF1
:1019F000F807C9F7CE014A9660E470E041E00E9422
:101A00003D0998A789A78AE590E0BE010E94B7101A
:101A1000CDB7DEB7E7E00C9447190F931F938C0105
:101A20000E94440AF801108A8CE2818BC8010E944E
:101A3000680A82E1F80187A7C80161E070E040E030
:101A40000E948E0AF80116A217A28091590180A760
:101A500011A68D5F8093590182E086AB84E087AB4D
:101A600085E080AF11AE80E686A78AE080AB11AA40
:101A7000C8014A9660E270E042E00E943D09F80128
:101A800092AB83AB8AE390E0B8010E94B7101F913C
:101A90000F910895EF92FF920F931F938C017B019A
:101AA000CB018896F801908B818BC8010E94510A66
:101AB000F80112AA13AA8CE190E0E80EF91EC80101
:101AC0004A96B70142E00E943D09F80192AB83AB10
:101AD000C7014A96B8010E94B7101F910F91FF905D
:101AE000EF900895EF92FF921F93CF93DF93EC0155
:101AF0007B01142F0E94440A812F80618FA714302C
:101B000031F0E114F10419F4E1E0EE2EF12CCE01F4
:101B1000B70141E00E948E0A188A88E2898BCE01C3
:101B20000E94680A84E088AB19AACE014A966CE14B
:101B300070E042E00E943D099AAB8BAB86E390E0F7
:101B4000BE010E94B710DF91CF911F91FF90EF90DF
:101B50000895EF92FF920F931F938C017B01609188
:101B60002F047091300440E00E94720D89E1F80169
:101B700087A7C801B7010E944A0D1F910F91FF90DE
:101B8000EF9008950F931F93CF93DF93EC018B0198
:101B90000E94440ACE010E94680A1AA28CA1883FC2
:101BA00018F08DA18F5F8DA38CA1885F8CA3C801D5
:101BB000BE010E94B710DF91CF911F910F91089540
:101BC000CF93DF93EC010E94440A1C8A82E08D8B44
:101BD000FE01A5E3B4E0868980A38D91868B3196C2
:101BE00084E0AB33B807B9F7FE017C96A1E3B4E01B
:101BF000808182878D91819384E0A533B807C1F7F6
:101C00008AE290E0BE010E94B710DF91CF91089563
:101C1000FF920F931F93CF93DF93EC018B0161151C
:101C2000710599F580912C04893079F480915501E2
:101C300090915601892B49F40E94AF10882329F016
:101C4000CE016DE374E00E94D70B80912C048130AB
:101C500091F40E94AF10882371F0CE016DE374E01F
:101C60000E94D70B80912C04886080932C041092E2
:101C7000560110925501809155019091560101969F
:101C8000909356018093550181C00E94080A8823D1
:101C900039F18D89813019F4CE010E94E00D8091D7
:101CA0002C0483FF73C01D89123009F06FC0CE0170
:101CB0004C966DE374E044E050E00E94891900976F
:101CC00009F064C06696E0915904F0915A048DE3DE
:101CD00094E060912D04AE01099510932C0456C038
:101CE000CE01B8010E94240A882309F44FC09F89BD
:101CF000913089F48AA1883071F4E0913B04F0912D
:101D00003C04309719F0CE014A960995CE01B801EE
:101D10000E94C20D3BC006331105C0F19630B1F5EB
:101D20009CA180912E04981789F59DA1809157015F
:101D3000981761F58FA5F82E81FF04C0CE010E948F
:101D40000D0D24C084FF22C0CE010E94A50A9093ED
:101D5000300480932F04892B49F4F0FE17C0CE0184
:101D600060E070E040E00E94720D10C08EA5829588
:101D70008F70482F50E0440F551F440F551F4E5D84
:101D80005F4F085010400417150710F440E050E072
:101D9000CA01CDB7DEB7E5E00C944919CF93DF93C4
:101DA000DA010D900020E9F71197A41B6A5C7F4FC0
:101DB000EC01C60FD71F66537040FA01B0E09A01DC
:101DC0002A0F3B1F02C081918993E217F307D9F7CD
:101DD0009B012A0F3B1FC901DF91CF910895009706
:101DE00041F0A5E3B4E0FC0186E001900D92815042
:101DF000E1F70895AC016115710579F020E030E05C
:101E0000F901EF5CFB4FDB01A20FB31F8C918083C4
:101E10002F5F3F4F2430310599F74115510519F0D7
:101E2000CA010E94EF0E08952C98962F9F71982B4F
:101E30009EBD0DB407FEFDCF1EBC0DB407FEFDCF49
:101E400067FF04C01EBC0DB407FEFDCF2C9A8EB5F3
:101E500008952C986F71682B6EBD0DB407FEFDCFF1
:101E60004EBD0DB407FEFDCF2C9A0895AC01FB01C9
:101E70002C988AE38EBD0DB407FEFDCF9A01DF01D9
:101E800008C01EBC0DB407FEFDCF215030408EB5FA
:101E90008D9321153105A9F7E40FF51F10822C9AB7
:101EA00008959C01FB012C988AE78EBD0DB407FEB6
:101EB000FDCF08C080818EBD0DB407FEFDCF21503F
:101EC0003040319621153105A9F72C9A08951F93BA
:101ED000CF93DF93182FC82FD0E0C076D0708091B9
:101EE000410490E0C817D90791F080EA6FE143E020
:101EF0000E94290F85E0D595C7958A95E1F780E87E
:101F00006FE14C2F0E94290F107610934104DF914E
:101F1000CF911F9108951F93182F0E94670F80E0A3
:101F2000612F0E94140F1F9108950F931F93182F74
:101F3000062F0E94670F80E4612F402F0E94290F17
:101F40001F910F9108951F93682F84ED0E94950FA4
:101F500082ED61E00E94950F8AEE0E948B0F80FD5A
:101F6000FBCF82ED60E00E94950F89ED0E948B0F00
:101F7000182F88ED0E948B0F512F40E0282F30E062
:101F8000242B352BC9011F9108950F931F93982F70
:101F9000162F072F84ED692F0E94950F86ED612F74
:101FA0000E94950F87ED602F0E94950F18E203C0E5
:101FB000812F8A95F1F78AEE0E948B0F80FDF8CF72
:101FC0001F910F910895682F677085E70E94950F04
:101FD00008950F931F938C01249A2C9A84B1806AE0
:101FE00084B926982D982F9880E58CBD8DB5816099
:101FF0008DBD8FEF60E04FEF0E94290F80E090E0F1
:102000000197F1F7109243041092420488E060E0D7
:102010000E94950F89E060E00E94950F8CE060E0DF
:102020000E94950F8DE060E00E94950F8AE06FEFAF
:102030000E94950F8BE069E10E94950F84E060E0BB
:102040000E94950F85E06AE10E94950F86E06FEF90
:102050000E94950F87E06FE10E94950F88E360EB87
:102060000E94950F88E26FE30E94950F89E260E37A
:102070000E94950F80E369EF0E94950F81E367EF5F
:102080000E94950F80EC6DE00E94950F81EC60E05E
:102090000E94950F80E862EC42E30E94290F86ECD3
:1020A00062E10E94950F87EC6CE00E94950F84EC32
:1020B00062E10E94950F8AEC6CED0E94950F8BEC0B
:1020C00065E00E94950F84EEF80160810E94950FF3
:1020D00085EEF80161810E94950F82EEF801628120
:1020E0000E94950F83EEF80163810E94950F80EEA8
:1020F000F80164810E94950F81EEF80165810E94CC
:10210000950F80E160E071E00E94C50F8FE10E94B1
:10211000670F80E86BE140EC0E94290F80E86FE1D7
:1021200044E00E94290F1F910F91089582E70E94B9
:102130008B0F863008F08F5F089588E30E948B0F25
:10214000682F616088E30E94950F089588E30E94DC
:102150008B0F682F6E7F88E30E94950F089581E1B1
:102160000E94A30F892F86958695817008950F93FD
:102170001F93CF93DF93EC018B010FC08CE10E9482
:102180008B0F81FF0AC080E86FE140E80E94290FB1
:1021900080EA6FE140E80E94290F80E06FE10E9431
:1021A000140F83FDEBCF82E060E00E94950F83E087
:1021B0006AE10E94950F86E06C2F0E94950F9E01A8
:1021C0002050364E87E0632F0E94950F8AE760E02B
:1021D00040E00E94290FCE01B8010E94510F80E813
:1021E0006FE148E00E94290FDF91CF911F910F917D
:1021F000089589E30E948B0F811181E00895A0E08A
:10220000B0E0E5E0F1E10C9426195C014B0189E3B3
:102210000E948B0F882319F4C0E0D0E070C00091B9
:1022200042041091430480E0602F0E94950F012F1B
:10223000110F110B81E0602F0E94950F8AE360E07F
:102240000E94140F182F8AE360E00E94140F382FA9
:1022500020E0E12EFF24E22AF32AF0924304E092E8
:1022600042048AE360E00E94140FC82E8AE360E013
:102270000E94140FD82E8AE360E00E94140F082FEA
:1022800010E08AE360E00E94140F382F20E0202B3A
:10229000312B27FD03C0C0E0D0E011C0CC2DD0E031
:1022A0009D2D80E0C82BD92BC501019724978C1751
:1022B0009D0708F4EC01CE01B4010E94360F81E0C5
:1022C000E8168AE1F8063CF08CE06FEF0E94950F6B
:1022D0008DE069E10DC06E2D61508CE00E94950F7C
:1022E0000894E108F1086F2D772767FD7A958DE056
:1022F0000E94950F80E86EE140E40E94290FCE0114
:10230000CDB7DEB7ECE00C944219CF93DF93DC013C
:10231000EB01F90160E019C080819817A1F4E21780
:10232000F30731F48E9111968F3311F0863259F400
:1023300031968081882341F411968C918D3319F464
:10234000F90161E001C0F90111969C91992331F0E6
:10235000903221F09D3011F06623F1F26130B9F432
:10236000FD0150E04150504002C0299331968E2F1C
:102370008A1B2081222351F0203241F02D3031F090
:10238000263221F090E0841795077CF31882862F7F
:10239000DF91CF910895982F80538A3068F0815350
:1023A000863010F4865F0895892F8154863010F0AE
:1023B00080E00895892F87530895CF92DF92FF928E
:1023C0000F931F93CF93DF93EC016C011CC09B32E2
:1023D00011F490E214C0953291F48E010F5F1F4FFB
:1023E000E8012196F80180810E94CB11F82EF801B6
:1023F00081810E94CB119F2D9295907F982BF601A1
:1024000091936F0121969881992309F7F601108223
:10241000DF91CF911F910F91FF90DF90CF900895A2
:10242000382FFB01282F2F70205D218320539927FF
:1024300087FD90958F7090700A9714F0295A218328
:10244000832F82958F70805D808380538A3014F053
:10245000895A808312820895A0E0B0E0E2E3F2E1BD
:102460000C9429197C01B42ED22EC02EEB0100E071
:1024700010E017C0B701610F711D888190E04C2DED
:1024800050E00E94BA1901C01F5FF701E10FF11D72
:1024900080818823C9F7DD2011F0D0821F5F0F5F94
:1024A00021960B1538F31150E10EF11CF701108243
:1024B000CDB7DEB7E9E00C944519AF92BF92CF9249
:1024C000DF92FF920F931F93DF93CF9300D000D042
:1024D000CDB7DEB76C018B0180E090E0F601E80F2C
:1024E000F91F1082019684309105C1F720E0FF2486
:1024F0005E010894A11CB11C24C0233068F4832F12
:10250000992787FD9095C0970A9730F4F501E20F5F
:10251000F11D30832F5F02C0222389F0F8018081F2
:102520008E3269F4F501E20FF11D1082C5010E949F
:102530005719F601EF0DF11D8083F39420E00F5F32
:102540001F4FF8013081332321F4F3E0FF1689F4A3
:1025500004C083E08F1588F60CC0CE010196FC0103
:10256000E20FF11D10820E945719F601838380E06B
:1025700001C081E00F900F900F900F90CF91DF91ED
:102580001F910F91FF90DF90CF90BF90AF90089573
:10259000A0E0B0E0EEECF2E10C942A19EB017C0132
:1025A0000894E11CF11C95E2C92E1CC080E2D816EB
:1025B00019F48BE2D82E08C08D2D992787FD9095B0
:1025C0000E947519892B11F0D99209C0FE01C192A0
:1025D0008F018D2DBF010E941012E80122960894F0
:1025E000E11CF11CF701D2907F010894E11CF11C61
:1025F000DD20E1F61882CDB7DEB7E8E00C9446198D
:1026000028EB3BE004C0F9013197F1F701970097FF
:10261000D1F7089587FF02C0459A01C0459886FF0B
:1026200002C0449A01C0449885FF02C0439A01C089
:10263000439884FF02C0429A08954298089584E026
:10264000982F9A95F1F7419A98E09A95F1F7419869
:102650008A95F1F708950F931F93182F062F3D9A2F
:102660003C9A3B9A3A9A0E940A1388E08A95F1F7BD
:10267000002311F0409A01C040980E941F13812F3F
:1026800013FF02C0459A01C0459882FF02C0449AD8
:1026900001C0449881FF02C0439A01C0439880FF63
:1026A00002C0429A01C0429888E08A95F1F700235F
:1026B00011F0409A01C040980E941F131F910F9182
:1026C00008951F931EE3912F9A95F1F760E00E9401
:1026D0002B131A95F1F788EB9BE0FC013197F1F78A
:1026E0000197F1F71F910895662311F4805801C0F6
:1026F00080540E94611308951F931EE3912F9A95B1
:10270000F1F761E00E942B131A95F1F71F910895DC
:10271000CF93DF93EC0103C00E947C132196888144
:102720008823D1F7DF91CF910895CF93DF93EC0108
:1027300002C00E947C13FE01219684918823C9F770
:10274000DF91CF9108951F93CF93DF93182F399A7C
:102750004198389A3D9A3C9A3B9A3A9A2CE030E05C
:1027600048EB5BE0C8EBDBE0CA010197F1F72150D1
:102770003040C1F780E30E940A130E941F13CE016C
:102780000197F1F7CE010197F1F780E30E940A1358
:102790000E941F13CE010197F1F7CE010197F1F7C7
:1027A00080E30E940A130E941F13CE010197F1F7E4
:1027B000CE010197F1F780E20E940A130E941F13D5
:1027C00088E20E94611388E00E94611381E00E9408
:1027D000611386E00E946113812F0E9461138EE3D2
:1027E0008A95F1F7CE010197F1F7CE010197F1F744
:1027F000DF91CF911F910895613011F4845E0895A7
:10280000673008F0615060FD02C08FE108958EE1ED
:102810000895ABE0B0E0EFE0F4E10C9420196B0117
:102820007C0149873B872A87180120E831E541E090
:1028300050E00E94FE18162F072FB82EA92EC701B0
:10284000B60120E831E541E050E00E94FE18690140
:10285000612F702F8B2D9A2D2CE330E040E050E05B
:102860000E94FE186887612F702F8B2D9A2D20E112
:102870003EE040E050E00E94FE182CE330E040E0F3
:1028800050E00E94FE18522E612F702F8B2D9A2D32
:1028900020E13EE040E050E00E94FE18622EC601BA
:1028A000049667E070E00E94EA18482E22EBE22EC0
:1028B00027E0F22E1AC0892889F4C70164E670E087
:1028C0000E94EA18892B39F4C70160E971E00E947F
:1028D000EA18892B19F48EE691E002C08DE691E0AA
:1028E000C81AD90A0894E11CF11C93E0892E912C96
:1028F0008E209F208114910489F4C70164E670E062
:102900000E94EA18892B39F4C70160E971E00E943E
:10291000EA18892B19F48EE691E002C08DE691E069
:10292000C816D90640F6C70164E670E00E94EA18AE
:102930005C01C70160E971E00E94EA188C0177240C
:1029400016C08114910419F080E090E00AC0A1142F
:10295000B10429F480E090E00115110511F481E043
:1029600090E0672D0E94FC13C81AD108739481145B
:10297000910419F080E090E00AC0A114B10429F498
:1029800080E090E00115110511F481E090E0672DE1
:102990000E94FC1390E0C816D90698F6E3E04E9E1C
:1029A00090011124C90183529B4FFC0184918C83B7
:1029B000C90182529B4FFC0184918D8321523B4F70
:1029C000F90184918E831F82DE011196EEE5F1E01C
:1029D00083E001900D928150E1F78DB79EB70C977F
:1029E0000FB6F8949EBF0FBE8DBFEDB7FEB7319600
:1029F0008A859B85ADB7BEB712969C938E9311972F
:102A000085E195E093838283CE0104969583848348
:102A1000F782E682872D90E001969187808708945F
:102A2000C11CD11CD386C2860E94E319ADB7BEB7C4
:102A30001C960FB6F894BEBF0FBEADBFB985BB23C1
:102A400001F1EDB7FEB73A970FB6F894FEBF0FBE8F
:102A5000EDBF3196ADB7BEB712963C922E9211974C
:102A600084E095E093838283648215825682178284
:102A7000B885B08711860E94E319EDB7FEB73A9684
:102A800031C0FBE0F61528F081E689838DE68A8364
:102A900002C084EF680E662011F48CE0682EADB79A
:102AA000BEB71C970FB6F894BEBF0FBEADBFEDB753
:102AB000FEB7319612963C922E92119783EF94E0D6
:102AC000938382836482158256821782B885B08789
:102AD0001186CE010196938782870E94E319EDB794
:102AE000FEB73C960FB6F894FEBF0FBEEDBF852D26
:102AF0002B96E2E10C943C19809144048F5F809303
:102B000044040895AC0181E06D317807E0F02AE1DA
:102B100031E014C0FA01E20FF31F8181882399F09C
:102B2000280F311DC90101966817790760F080816F
:102B3000853311F4828108952E5F3F4FC9010296BB
:102B40008617970738F380E00895FC016F3F710501
:102B500081F078F083A1833461F482A5823049F456
:102B600097A5941731F420E080A9891719F421E082
:102B700001C020E0822F0895FC016F3F710509F02C
:102B800010F420E005C020E086A5823009F421E0A1
:102B9000822F0895A0E0B0E0E0EDF5E10C94281953
:102BA0005C016B0181E06D31780710F480E0B7C003
:102BB000009158046091450470914604CAE1D1E047
:102BC00020E030E040E050E09DC0CE010196F501EC
:102BD000E80FF91F1081112309F49AC0E12EFF2498
:102BE0008E0D9F1DC816D90608F492C0F501EC0F92
:102BF000FD1F8081833021F1843030F4882371F00F
:102C0000813009F079C00CC0853309F463C0863384
:102C100009F464C0833309F06FC022C0E6016CC0C0
:102C2000143009F069C0DF01ECE4F4E012968C91F5
:102C300012978193119694E0E035F907B9F75CC0DB
:102C4000143009F059C0DF01E0E5F4E012968C91F0
:102C500012978193119684E0E435F807B9F74CC0D8
:102C6000143019F060EA75E047C060E0542F432F3C
:102C7000322F2227828190E0A0E0B0E0282B392B70
:102C80004A2B5B2B6F5F3196643081F72F3F9FEFAC
:102C900039079FEF49079FEF590719F46FEF7FEF4F
:102CA0002BC086E056954795379527958A95D1F79D
:102CB0002E3F8FEF380780E0480780E0580718F074
:102CC0006DEF7FEF01C0B90165307105A8F465E0D3
:102CD00070E012C0AA0DBB1D0C910EC0143061F43F
:102CE000DF01E4E5F4E012968C911297819311963E
:102CF00094E0E835F907B9F782E090E0E80EF91EB4
:102D0000CE0DDF1DDE011296AC15BD0508F45DCFBA
:102D100000935804709346046093450481E0CDB756
:102D2000DEB7EAE00C944419CF93DF93FC01EB018A
:102D30009A01009761F08091480490914904A09114
:102D40004A04B0914B0480839183A283B38320977C
:102D500061F080914C0490914D04A0914E04B0918B
:102D60004F0488839983AA83BB832115310569F0B9
:102D70008091500490915104A0915204B091530459
:102D8000F90180839183A283B383DF91CF9108956A
:102D9000FC016F3F710591F088F082AD882371F0DE
:102DA00082AD93ADA4ADB5AD809348049093490432
:102DB000A0934A04B0934B0481E0089580E0089505
:102DC000A6E0B0E0E6EEF6E10C942B197C01D62EDD
:102DD000DE011196E3E6F1E086E001900D9281506C
:102DE000E1F7C70164E470E08E010F5F1F4FA80197
:102DF00023E430E00E943D0BF701128E138E148EF7
:102E0000158E91E092A793A786E084A796A7D7A6F0
:102E1000D0AAD1AAF29688E011928F5F8C31E1F7A7
:102E2000F70190E08681EA5BFF4F80839F5FE55466
:102E3000F0409630B9F7F701E45BFF4F82E2119260
:102E40008F5F8C3EE1F786E191E0E80EF91E93E694
:102E5000F701919382E8819383E581937F019083C9
:102E60002696E7E00C944719EF92FF920F931F9379
:102E70008C017A010E94E01682E0F80186A7F70132
:102E800080819181A281B381F801828F938FA48F79
:102E9000B58FF70180819181A281B381F80186AB62
:102EA00097ABA0AFB1AF065E1E4F85E3F8018193EB
:102EB00081E081938F0183E080830C511140C80130
:102EC00063EF70E00E94270C80E01F910F91FF904C
:102ED000EF9008950F931F93CF93DF938C01EB0135
:102EE00080914404893088F0109244042091450474
:102EF00030914604C90102978D5F9F4F30F42150F5
:102F0000304030934604209345042097D9F48091B3
:102F1000450490914604039768F50E94AF108823FA
:102F200049F1609147046F5F60934704C80148E42A
:102F300054E00E94341785E090E09093460480931B
:102F4000450418C0C801BE01409147040E94A51560
:102F5000882381F0C801BE010E948215853041F4AA
:102F6000CF3FD10529F020F0F80186A5823041F04D
:102F7000C0E0D0E0CE01DF91CF911F910F91089575
:102F8000C801BE010E94CA15F3CFCF93DF93EC01B5
:102F90000E94E016C65EDE4F85E3899381E0899347
:102FA00083E08883CC51D14080915404882311F46C
:102FB00063E015C0C35EDE4F86E3899384E08993A6
:102FC0008091540490915504A0915604B0915704F7
:102FD00088839983AA83BB83CF51D14069E08091D4
:102FE00048048823E9F0262F30E0FE01E20FF31FAA
:102FF000E65EFE4F82E3819384E08083245E3E4F51
:103000002C0F3D1F8091480490914904A0914A04DF
:10301000B0914B04F90180839183A283B3836A5FEB
:1030200070E0FE01E60FF71FE65EFE4F87E3819337
:1030300082E0819381E0819383E081938FEF81939C
:1030400010826B507F4FCE010E94270C80E0DF91F1
:10305000CF9108950F931F938C010E94E016065E96
:103060001E4F85E3F801819391E09193919387E35B
:10307000819382E08193919383E081938FEF819399
:103080008F01108202521140C80168EF70E00E9467
:10309000270C80E01F910F910895FF920F931F93CB
:1030A000CF93DF93EC018B01F42E0E94AF108823A5
:1030B00009F46BC00115110599F52091610130915A
:1030C00062012230310559F481E090E09093620171
:1030D0008093610110924404F09247040FC08091E4
:1030E0004804882399F480914404863078F08091D4
:1030F00047048F5F80934704109244040E949D1000
:10310000CE01609147040E942A183FC02330310548
:10311000E0F121503040309362012093610135C0CD
:10312000CE01B801409147040E94A515882369F19A
:103130000F3F110521F018F08EA5823031F1CE013C
:10314000B8010E9482158230A1F481E090E0909352
:10315000620180936101CE01B8010E94C816CE01C0
:10316000B8010E94CA15CE01609147040E94C5179C
:103170000CC0853051F481E090E09093620180931F
:1031800061010E94A61081E001C080E0CDB7DEB7EA
:10319000E5E00C944919629FD001739FF001829F72
:1031A000E00DF11D649FE00DF11D929FF00D839FD6
:1031B000F00D749FF00D659FF00D9927729FB00D73
:1031C000E11DF91F639FB00DE11DF91FBD01CF0186
:1031D00011240895AA1BBB1B51E107C0AA1FBB1FE6
:1031E000A617B70710F0A61BB70B881F991F5A9593
:1031F000A9F780959095BC01CD010895A1E21A2E02
:10320000AA1BBB1BFD010DC0AA1FBB1FEE1FFF1F8A
:10321000A217B307E407F50720F0A21BB30BE40BDA
:10322000F50B661F771F881F991F1A9469F7609521
:103230007095809590959B01AC01BD01CF010895DB
:103240002F923F924F925F926F927F928F929F92B6
:10325000AF92BF92CF92DF92EF92FF920F931F93A4
:10326000CF93DF93CDB7DEB7CA1BDB0B0FB6F89455
:10327000DEBF0FBECDBF09942A88398848885F8495
:103280006E847D848C849B84AA84B984C884DF8006
:10329000EE80FD800C811B81AA81B981CE0FD11DEA
:1032A0000FB6F894DEBF0FBECDBFED010895FC014F
:1032B00088279927E89421912032E9F3293010F0EA
:1032C0002E30C8F32B3241F02D3239F4689404C00B
:1032D0000E94DB19820F911D219120532A30C0F3E7
:1032E0001EF4909581959F4F0895911106C08053CB
:1032F0008A5010F0865C06C00895992788270895A3
:1033000085FDFBCF80629111F8CF81568A51E0F79D
:103310000895FB01DC0104C08D910190801921F416
:1033200041505040C8F7881B990B0895FB01DC0100
:1033300001900D920020E1F70895FB01DC0141505E
:10334000504030F08D910190801919F40020B9F7A8
:10335000881B990B0895FB01DC014150504048F057
:1033600001900D920020C9F701C01D9241505040BC
:10337000E0F70895FB019F01E8944230C4F0453224
:10338000B4F44A3029F497FB1EF4909581959F4F31
:10339000642F77270E94EA18805D8A330CF0895DDC
:1033A0008193CB010097A1F716F45DE2519310824F
:1033B000C9010C94351C7AE0979F902D879F802D32
:1033C000910D11240895AEE0B0E0E9EEF9E10C941E
:1033D0002E190D891E898EE08C831A8309838FEF45
:1033E0009FE79E838D839E01275E3F4FCE0101960E
:1033F0006F89788DA9010E94071A2F813885020FE5
:10340000131FF80110822E96E4E00C944A19ABE0E9
:10341000B0E0EDE0FAE10C9420193C012B015A01D7
:10342000FC0117821682838181FD03C06FEF7FEF5D
:10343000C6C19AE0892E1E010894211C311CF3019B
:103440002381F20123FD859123FF81912F018823A0
:1034500009F4B2C1853239F423FD859123FF8191AE
:103460002F01853229F490E0B3010E94451CE7CF7B
:10347000982FFF24EE249924FFE1FF15D0F09B3212
:1034800069F09C3228F4903259F0933291F40EC0D6
:103490009D3249F0903369F441E024C052E0F52AAE
:1034A00084E0F82A28C098E0F92A25C0E0E1FE2A45
:1034B00022C0F7FC29C0892F80538A3070F4F6FEB1
:1034C00005C0989C902C1124980E15C0E89CE02C07
:1034D0001124E80EF0E2FF2A0EC09E3229F4F6FC19
:1034E0006BC140E4F42A07C09C3619F450E8F52A71
:1034F00002C0983649F4F20123FD959123FF919182
:103500002F01992309F0B8CF892F8554833018F003
:103510008052833038F444E050E0A40EB51E5FE3DF
:1035200059830FC0933631F0933779F0933509F012
:1035300056C020C0F5018081898342E050E0A40E8E
:10354000B51E610101E010E012C0F501C080D1801C
:10355000F6FC03C06FEF7FEF02C0692D70E042E020
:1035600050E0A40EB51EC6010E942A1C8C015FE724
:10357000F52214C0F501C080D180F6FC03C06FEFC6
:103580007FEF02C0692D70E042E050E0A40EB51E4E
:10359000C6010E941F1C8C0150E8F52AF3FE07C0EB
:1035A0001AC080E290E0B3010E94451CEA948E2D7F
:1035B00090E008171907A8F30EC0F601F7FC8591F3
:1035C000F7FE81916F0190E0B3010E94451CE1106C
:1035D000EA94015010400115110579F7EAC09436BC
:1035E00011F0993669F5F7FE08C0F50120813181A7
:1035F0004281538184E090E00AC0F501808191818D
:103600009C01442737FD4095542F82E090E0A80E9E
:10361000B91E9FE6F92257FF09C050954095309595
:1036200021953F4F4F4F5F4FE0E8FE2ACA01B90195
:10363000A1012AE030E00E94711CD82ED21840C0AF
:10364000953729F41F2D1F7E2AE030E01DC01F2D65
:10365000197F9F3661F0903720F4983509F0ACC09F
:103660000FC0903739F0983709F0A6C004C028E0A1
:1036700030E00AC0106114FD146020E130E004C0A5
:1036800014FD166020E132E017FF08C0F5016081EB
:1036900071818281938144E050E008C0F50180810E
:1036A0009181BC0180E090E042E050E0A40EB51EA4
:1036B000A1010E94711CD82ED2188FE7F82EF1229A
:1036C000F6FE0BC05EEFF522D91438F4F4FE07C005
:1036D000F2FC05C08FEEF82202C01D2D01C0192D8D
:1036E000F4FE0DC0FE01ED0DF11D8081803319F453
:1036F00099EEF92208C01F5FF2FE05C003C08F2DAE
:10370000867809F01F5F0F2DF3FC14C0F0FE0FC088
:103710001E1510F09D2C0BC09D2C9E0C911A1E2D79
:1037200006C080E290E0B3010E94451C1F5F1E1599
:10373000C0F304C01E1510F4E11A01C0EE2404FF0A
:103740000FC080E390E0B3010E94451C02FF1DC042
:1037500001FD03C088E790E00EC088E590E00BC053
:10376000802F867891F001FF02C08BE201C080E2D9
:10377000F7FC8DE290E0B3010E94451C06C080E397
:1037800090E0B3010E94451C9A94D914C0F3DA94D6
:10379000F101ED0DF11D808190E0B3010E94451C07
:1037A000DD20A9F706C080E290E0B3010E94451C2D
:1037B000EA94EE20C1F743CEF30166817781CB0115
:1037C0002B96E2E10C943C19DC01CB01FC01F99948
:1037D000FECF06C0F2BDE1BDF89A319600B40D925D
:1037E00041505040B8F70895F999FECF92BD81BD80
:1037F000F89A992780B50895A8E1B0E042E050E03A
:103800000C94E61BDC01CB0103C02D910E940D1C22
:1038100041505040D0F70895262FF999FECF1FBA96
:1038200092BD81BD20BD0FB6F894FA9AF99A0FBEE9
:10383000019608950E940C1C272F0C940D1CFC016E
:103840000590615070400110D8F7809590958E0FCB
:103850009F1F0895FC016150704001900110D8F73E
:10386000809590958E0F9F1F0895DC01FC01672FB6
:1038700071917723E1F7329704C07C916D93708347
:103880006291AE17BF07C8F308950F931F93CF93AC
:10389000DF938C01EB018B8181FF1BC082FF0DC088
:1038A0002E813F818C819D812817390764F4E8813E
:1038B000F9810193F983E88306C0E885F985802FB3
:1038C0000995892B31F48E819F8101969F838E8388
:1038D00002C00FEF1FEFC801DF91CF911F910F9131
:1038E0000895FA01AA27283051F1203181F1E89496
:1038F0006F936E7F6E5F7F4F8F4F9F4FAF4FB1E0E3
:103900003ED0B4E03CD0670F781F891F9A1FA11DDD
:10391000680F791F8A1F911DA11D6A0F711D811DDE
:10392000911DA11D20D009F468943F912AE0269FA3
:1039300011243019305D3193DEF6CF010895462F02
:103940004770405D4193B3E00FD0C9F7F6CF462FE3
:103950004F70405D4A3318F0495D31FD405241934C
:1039600002D0A9F7EACFB4E0A69597958795779509
:103970006795BA95C9F700976105710508959B0190
:10398000AC010A2E06945795479537952795BA9519
:10399000C9F7620F731F841F951FA01D0895F89427
:0239A000FFCF57
:1039A2002020302E30000A54696D653A20002F0025
:1039B2002F74312E6A73002F636F6E666967002F52
:1039C20063753F007077006E7300686800756F0062
:1039D200747A006E70004745542000D8FF54555841
:1039E20010502811AB040F736563726574000000F8
:1039F2000001012863010050020AFFFFFFFF706D02
:0A3A020000FF5FFFFFFFFFFFFF0062
:00000001FF
